{
  "_format": "hh-sol-artifact-1",
  "contractName": "Grateful",
  "sourceName": "contracts/Grateful.sol",
  "abi": [
    {
      "inputs": [
        {
          "internalType": "address",
          "name": "_dai",
          "type": "address"
        },
        {
          "internalType": "address",
          "name": "_vault",
          "type": "address"
        }
      ],
      "stateMutability": "nonpayable",
      "type": "constructor"
    },
    {
      "inputs": [],
      "name": "AlreadySubscribed",
      "type": "error"
    },
    {
      "inputs": [],
      "name": "IllegalState",
      "type": "error"
    },
    {
      "inputs": [],
      "name": "InsolventUser",
      "type": "error"
    },
    {
      "inputs": [],
      "name": "InsufficientAllowance",
      "type": "error"
    },
    {
      "inputs": [],
      "name": "NotSubscribed",
      "type": "error"
    },
    {
      "inputs": [],
      "name": "ZeroAddress",
      "type": "error"
    },
    {
      "inputs": [],
      "name": "ZeroAmount",
      "type": "error"
    },
    {
      "anonymous": false,
      "inputs": [
        {
          "indexed": true,
          "internalType": "address",
          "name": "user",
          "type": "address"
        },
        {
          "indexed": false,
          "internalType": "uint256",
          "name": "amount",
          "type": "uint256"
        },
        {
          "indexed": false,
          "internalType": "uint256",
          "name": "shares",
          "type": "uint256"
        }
      ],
      "name": "FundsDeposited",
      "type": "event"
    },
    {
      "anonymous": false,
      "inputs": [
        {
          "indexed": true,
          "internalType": "address",
          "name": "user",
          "type": "address"
        },
        {
          "indexed": false,
          "internalType": "uint256",
          "name": "amount",
          "type": "uint256"
        },
        {
          "indexed": false,
          "internalType": "uint256",
          "name": "amountWithdrawn",
          "type": "uint256"
        }
      ],
      "name": "FundsWithdrawn",
      "type": "event"
    },
    {
      "anonymous": false,
      "inputs": [
        {
          "indexed": true,
          "internalType": "address",
          "name": "user",
          "type": "address"
        },
        {
          "indexed": true,
          "internalType": "address",
          "name": "creator",
          "type": "address"
        },
        {
          "indexed": false,
          "internalType": "enum IGratefulData.Tier",
          "name": "tier",
          "type": "uint8"
        }
      ],
      "name": "SubscriptionCreated",
      "type": "event"
    },
    {
      "anonymous": false,
      "inputs": [
        {
          "indexed": true,
          "internalType": "address",
          "name": "user",
          "type": "address"
        },
        {
          "indexed": true,
          "internalType": "address",
          "name": "creator",
          "type": "address"
        }
      ],
      "name": "SubscriptionFinished",
      "type": "event"
    },
    {
      "inputs": [],
      "name": "TIER_ONE_RATE",
      "outputs": [
        {
          "internalType": "uint256",
          "name": "",
          "type": "uint256"
        }
      ],
      "stateMutability": "view",
      "type": "function"
    },
    {
      "inputs": [],
      "name": "TIER_THREE_RATE",
      "outputs": [
        {
          "internalType": "uint256",
          "name": "",
          "type": "uint256"
        }
      ],
      "stateMutability": "view",
      "type": "function"
    },
    {
      "inputs": [],
      "name": "TIER_TWO_RATE",
      "outputs": [
        {
          "internalType": "uint256",
          "name": "",
          "type": "uint256"
        }
      ],
      "stateMutability": "view",
      "type": "function"
    },
    {
      "inputs": [
        {
          "internalType": "address",
          "name": "userAddress",
          "type": "address"
        }
      ],
      "name": "balanceOf",
      "outputs": [
        {
          "internalType": "uint256",
          "name": "balance",
          "type": "uint256"
        }
      ],
      "stateMutability": "view",
      "type": "function"
    },
    {
      "inputs": [],
      "name": "dai",
      "outputs": [
        {
          "internalType": "contract IERC20",
          "name": "",
          "type": "address"
        }
      ],
      "stateMutability": "view",
      "type": "function"
    },
    {
      "inputs": [
        {
          "internalType": "uint256",
          "name": "amount",
          "type": "uint256"
        }
      ],
      "name": "depositFunds",
      "outputs": [],
      "stateMutability": "nonpayable",
      "type": "function"
    },
    {
      "inputs": [
        {
          "internalType": "address",
          "name": "giverAddress",
          "type": "address"
        },
        {
          "internalType": "address",
          "name": "creator",
          "type": "address"
        }
      ],
      "name": "getGiverToCreatorFlow",
      "outputs": [
        {
          "internalType": "uint256",
          "name": "",
          "type": "uint256"
        }
      ],
      "stateMutability": "view",
      "type": "function"
    },
    {
      "inputs": [
        {
          "internalType": "address",
          "name": "userAddress",
          "type": "address"
        }
      ],
      "name": "getUserData",
      "outputs": [
        {
          "internalType": "uint256",
          "name": "",
          "type": "uint256"
        },
        {
          "internalType": "uint256",
          "name": "",
          "type": "uint256"
        },
        {
          "internalType": "address[]",
          "name": "",
          "type": "address[]"
        },
        {
          "internalType": "address[]",
          "name": "",
          "type": "address[]"
        }
      ],
      "stateMutability": "view",
      "type": "function"
    },
    {
      "inputs": [
        {
          "internalType": "address",
          "name": "userAddress",
          "type": "address"
        },
        {
          "internalType": "address",
          "name": "creator",
          "type": "address"
        }
      ],
      "name": "isUserSubscribed",
      "outputs": [
        {
          "internalType": "bool",
          "name": "",
          "type": "bool"
        }
      ],
      "stateMutability": "view",
      "type": "function"
    },
    {
      "inputs": [],
      "name": "minimumSolvencyDuration",
      "outputs": [
        {
          "internalType": "uint256",
          "name": "",
          "type": "uint256"
        }
      ],
      "stateMutability": "view",
      "type": "function"
    },
    {
      "inputs": [],
      "name": "pricePerShare",
      "outputs": [
        {
          "internalType": "uint256",
          "name": "",
          "type": "uint256"
        }
      ],
      "stateMutability": "view",
      "type": "function"
    },
    {
      "inputs": [
        {
          "internalType": "address",
          "name": "creator",
          "type": "address"
        },
        {
          "internalType": "enum IGratefulData.Tier",
          "name": "tier",
          "type": "uint8"
        }
      ],
      "name": "subscribeToCreator",
      "outputs": [],
      "stateMutability": "nonpayable",
      "type": "function"
    },
    {
      "inputs": [
        {
          "internalType": "address",
          "name": "creator",
          "type": "address"
        }
      ],
      "name": "unsubscribeFromCreator",
      "outputs": [],
      "stateMutability": "nonpayable",
      "type": "function"
    },
    {
      "inputs": [],
      "name": "vault",
      "outputs": [
        {
          "internalType": "contract IYearnVaultV2",
          "name": "",
          "type": "address"
        }
      ],
      "stateMutability": "view",
      "type": "function"
    },
    {
      "inputs": [],
      "name": "withdrawAllFunds",
      "outputs": [],
      "stateMutability": "nonpayable",
      "type": "function"
    },
    {
      "inputs": [
        {
          "internalType": "uint256",
          "name": "amount",
          "type": "uint256"
        }
      ],
      "name": "withdrawFunds",
      "outputs": [],
      "stateMutability": "nonpayable",
      "type": "function"
    }
  ],
  "bytecode": "0x60c060405262093a806001553480156200001857600080fd5b50604051620029143803806200291483398181016040528101906200003e919062000137565b8181600073ffffffffffffffffffffffffffffffffffffffff168273ffffffffffffffffffffffffffffffffffffffff161415620000a8576040517fd92e233d00000000000000000000000000000000000000000000000000000000815260040160405180910390fd5b8173ffffffffffffffffffffffffffffffffffffffff1660808173ffffffffffffffffffffffffffffffffffffffff1660601b815250508073ffffffffffffffffffffffffffffffffffffffff1660a08173ffffffffffffffffffffffffffffffffffffffff1660601b8152505050505050620001d1565b6000815190506200013181620001b7565b92915050565b60008060408385031215620001515762000150620001b2565b5b6000620001618582860162000120565b9250506020620001748582860162000120565b9150509250929050565b60006200018b8262000192565b9050919050565b600073ffffffffffffffffffffffffffffffffffffffff82169050919050565b600080fd5b620001c2816200017e565b8114620001ce57600080fd5b50565b60805160601c60a05160601c6126d86200023c600039600081816108a90152818161097401528181610a1f01528181610ad401528181610d0901528181610d710152610f9901526000818161088501528181610bcc01528181610cbf0152610d2b01526126d86000f3fe608060405234801561001057600080fd5b50600436106101005760003560e01c8063893dc14d11610097578063f4b9fa7511610066578063f4b9fa7514610275578063fbfa77cf14610293578063ffb84883146102b1578063ffc9896b146102e157610100565b8063893dc14d146101ed57806399530b061461021d578063b0e6ed1d1461023b578063ed663db61461025757610100565b80633b76594d116100d35780633b76594d1461017b57806349649fbf146101975780635fa9b205146101a157806370a08231146101bd57610100565b80630644797614610105578063155dd5ee146101235780632c1746951461013f5780632d2fad731461015d575b600080fd5b61010d610314565b60405161011a919061207a565b60405180910390f35b61013d60048036038101906101389190611c82565b61031d565b005b610147610400565b604051610154919061207a565b60405180910390f35b61016561040a565b604051610172919061207a565b60405180910390f35b61019560048036038101906101909190611c82565b610410565b005b61019f6104be565b005b6101bb60048036038101906101b69190611c15565b610551565b005b6101d760048036038101906101d29190611ba8565b6106d6565b6040516101e4919061207a565b60405180910390f35b61020760048036038101906102029190611bd5565b6106f5565b604051610214919061207a565b60405180910390f35b61022561074e565b604051610232919061207a565b60405180910390f35b61025560048036038101906102509190611ba8565b61075d565b005b61025f610879565b60405161026c919061207a565b60405180910390f35b61027d610883565b60405161028a9190611f87565b60405180910390f35b61029b6108a7565b6040516102a89190611fa2565b60405180910390f35b6102cb60048036038101906102c69190611bd5565b6108cb565b6040516102d89190611f6c565b60405180910390f35b6102fb60048036038101906102f69190611ba8565b6108ec565b60405161030b949392919061211e565b60405180910390f35b6459d39e7f0f81565b6000811415610358576040517f1f2a200500000000000000000000000000000000000000000000000000000000815260040160405180910390fd5b6103618161092b565b610369610957565b61039f576040517f803b3f6100000000000000000000000000000000000000000000000000000000815260040160405180910390fd5b60006103aa8261096f565b90503373ffffffffffffffffffffffffffffffffffffffff167ffbc3a599b784fe88772fc5abcc07223f64ca0b13acc341f4fb1e46bef0510eb483836040516103f49291906120f5565b60405180910390a25050565b65010d7adb7d2f81565b60015481565b600081141561044b576040517f1f2a200500000000000000000000000000000000000000000000000000000000815260040160405180910390fd5b61045481610bc8565b600061045f82610cb5565b905061046a81610e23565b3373ffffffffffffffffffffffffffffffffffffffff167fbee4fe3675934fca827426c793623996a3079255089bda3a717019ffc5db276583836040516104b29291906120f5565b60405180910390a25050565b60006104c933610e4f565b90506104d481610e96565b6000816000015490506104e68161092b565b6104ef82610eb9565b60006104fa8261096f565b90503373ffffffffffffffffffffffffffffffffffffffff167ffbc3a599b784fe88772fc5abcc07223f64ca0b13acc341f4fb1e46bef0510eb483836040516105449291906120f5565b60405180910390a2505050565b600073ffffffffffffffffffffffffffffffffffffffff168273ffffffffffffffffffffffffffffffffffffffff1614156105b8576040517fd92e233d00000000000000000000000000000000000000000000000000000000815260040160405180910390fd5b60006105c333610e4f565b90506105cf8184610f12565b15610606576040517f5fd8a13200000000000000000000000000000000000000000000000000000000815260040160405180910390fd5b61060f81610f61565b610645576040517f803b3f6100000000000000000000000000000000000000000000000000000000815260040160405180910390fd5b600061064f610f95565b9050600061065d848361103a565b905061066a838683611070565b8473ffffffffffffffffffffffffffffffffffffffff163373ffffffffffffffffffffffffffffffffffffffff167f869f8638cdd8c0a63d1b761f3fcff4eb5805847654e8081a8ced03f141bc6172866040516106c79190611fbd565b60405180910390a35050505050565b6000806106e283610e4f565b90506106ed81611151565b915050919050565b60008061070184610e4f565b90508060030160008473ffffffffffffffffffffffffffffffffffffffff1673ffffffffffffffffffffffffffffffffffffffff1681526020019081526020016000205491505092915050565b6000610758610f95565b905090565b600073ffffffffffffffffffffffffffffffffffffffff168173ffffffffffffffffffffffffffffffffffffffff1614156107c4576040517fd92e233d00000000000000000000000000000000000000000000000000000000815260040160405180910390fd5b60006107cf33610e4f565b90506107db8183610f12565b610811576040517f237e6c2800000000000000000000000000000000000000000000000000000000815260040160405180910390fd5b61081b8183611175565b8173ffffffffffffffffffffffffffffffffffffffff163373ffffffffffffffffffffffffffffffffffffffff167f91002c5224695126545c1aa8bed704a4371b31483853bd98799e3f2cd40f6a1b60405160405180910390a35050565b6501c122187b4f81565b7f000000000000000000000000000000000000000000000000000000000000000081565b7f000000000000000000000000000000000000000000000000000000000000000081565b6000806108d784610e4f565b90506108e38184610f12565b91505092915050565b60008060608060006108fd86610e4f565b9050806001015481600201546109128361129c565b61091b846112b1565b9450945094509450509193509193565b600061093633610e4f565b90508181600001600082825461094c91906122bd565b925050819055505050565b600061096a61096533610e4f565b610f61565b905090565b6000807f000000000000000000000000000000000000000000000000000000000000000073ffffffffffffffffffffffffffffffffffffffff166370a08231306040518263ffffffff1660e01b81526004016109cb9190611ec8565b60206040518083038186803b1580156109e357600080fd5b505afa1580156109f7573d6000803e3d6000fd5b505050506040513d601f19601f82011682018060405250810190610a1b9190611caf565b90507f000000000000000000000000000000000000000000000000000000000000000073ffffffffffffffffffffffffffffffffffffffff1663e63697c884306127106040518463ffffffff1660e01b8152600401610a7c939291906120be565b602060405180830381600087803b158015610a9657600080fd5b505af1158015610aaa573d6000803e3d6000fd5b505050506040513d601f19601f82011682018060405250810190610ace9190611caf565b915060007f000000000000000000000000000000000000000000000000000000000000000073ffffffffffffffffffffffffffffffffffffffff166370a08231306040518263ffffffff1660e01b8152600401610b2b9190611ec8565b60206040518083038186803b158015610b4357600080fd5b505afa158015610b57573d6000803e3d6000fd5b505050506040513d601f19601f82011682018060405250810190610b7b9190611caf565b9050838183610b8a91906122bd565b14610bc1576040517f4a613c4100000000000000000000000000000000000000000000000000000000815260040160405180910390fd5b5050919050565b60007f000000000000000000000000000000000000000000000000000000000000000073ffffffffffffffffffffffffffffffffffffffff1663dd62ed3e33306040518363ffffffff1660e01b8152600401610c25929190611ee3565b60206040518083038186803b158015610c3d57600080fd5b505afa158015610c51573d6000803e3d6000fd5b505050506040513d601f19601f82011682018060405250810190610c759190611caf565b905081811015610cb1576040517f13be252b00000000000000000000000000000000000000000000000000000000815260040160405180910390fd5b5050565b6000610d043330847f000000000000000000000000000000000000000000000000000000000000000073ffffffffffffffffffffffffffffffffffffffff166112c6909392919063ffffffff16565b610d6f7f0000000000000000000000000000000000000000000000000000000000000000837f000000000000000000000000000000000000000000000000000000000000000073ffffffffffffffffffffffffffffffffffffffff1661134f9092919063ffffffff16565b7f000000000000000000000000000000000000000000000000000000000000000073ffffffffffffffffffffffffffffffffffffffff16636e553f6583306040518363ffffffff1660e01b8152600401610dca929190612095565b602060405180830381600087803b158015610de457600080fd5b505af1158015610df8573d6000803e3d6000fd5b505050506040513d601f19601f82011682018060405250810190610e1c9190611caf565b9050919050565b6000610e2e33610e4f565b905081816000016000828254610e4491906121dc565b925050819055505050565b60008060008373ffffffffffffffffffffffffffffffffffffffff1673ffffffffffffffffffffffffffffffffffffffff1681526020019081526020016000209050919050565b6000610ea182611151565b90508082600001819055504282600401819055505050565b6000610ec7826005016114ad565b905060005b81811015610f0d576000610eed6000856005016114c290919063ffffffff16565b9050610ef98482611175565b508080610f05906123d9565b915050610ecc565b505050565b6000808360030160008473ffffffffffffffffffffffffffffffffffffffff1673ffffffffffffffffffffffffffffffffffffffff168152602001908152602001600020541415905092915050565b600080600154610f7484600401546114dc565b610f7e91906121dc565b90506000610f8c8483611513565b11915050919050565b60007f000000000000000000000000000000000000000000000000000000000000000073ffffffffffffffffffffffffffffffffffffffff166399530b066040518163ffffffff1660e01b815260040160206040518083038186803b158015610ffd57600080fd5b505afa158015611011573d6000803e3d6000fd5b505050506040513d601f19601f820116820180604052508101906110359190611caf565b905090565b6000806110468461157c565b905082670de0b6b3a76400008261105d9190612263565b6110679190612232565b91505092915050565b61107983610e96565b8083600201600082825461108d91906121dc565b92505081905550808360030160008473ffffffffffffffffffffffffffffffffffffffff1673ffffffffffffffffffffffffffffffffffffffff16815260200190815260200160002060008282546110e591906121dc565b92505081905550611102828460050161160290919063ffffffff16565b50600061110e83610e4f565b905061111981610e96565b8181600101600082825461112d91906121dc565b9250508190555061114a338260070161160290919063ffffffff16565b5050505050565b60008061116183600401546114dc565b905061116d8382611513565b915050919050565b60008260030160008373ffffffffffffffffffffffffffffffffffffffff1673ffffffffffffffffffffffffffffffffffffffff1681526020019081526020016000205490506111c483610e96565b808360020160008282546111d891906122bd565b92505081905550808360030160008473ffffffffffffffffffffffffffffffffffffffff1673ffffffffffffffffffffffffffffffffffffffff168152602001908152602001600020600082825461123091906122bd565b9250508190555061124d828460050161163290919063ffffffff16565b50600061125983610e4f565b905061126481610e96565b8181600101600082825461127891906122bd565b92505081905550611295338260070161163290919063ffffffff16565b5050505050565b60606112aa82600501611662565b9050919050565b60606112bf82600701611662565b9050919050565b611349846323b872dd60e01b8585856040516024016112e793929190611f0c565b604051602081830303815290604052907bffffffffffffffffffffffffffffffffffffffffffffffffffffffff19166020820180517bffffffffffffffffffffffffffffffffffffffffffffffffffffffff8381831617835250505050611683565b50505050565b60008114806113e8575060008373ffffffffffffffffffffffffffffffffffffffff1663dd62ed3e30856040518363ffffffff1660e01b8152600401611396929190611ee3565b60206040518083038186803b1580156113ae57600080fd5b505afa1580156113c2573d6000803e3d6000fd5b505050506040513d601f19601f820116820180604052508101906113e69190611caf565b145b611427576040517f08c379a000000000000000000000000000000000000000000000000000000000815260040161141e9061205a565b60405180910390fd5b6114a88363095ea7b360e01b8484604051602401611446929190611f43565b604051602081830303815290604052907bffffffffffffffffffffffffffffffffffffffffffffffffffffffff19166020820180517bffffffffffffffffffffffffffffffffffffffffffffffffffffffff8381831617835250505050611683565b505050565b60006114bb8260000161174a565b9050919050565b60006114d1836000018361175b565b60001c905092915050565b6000808214156114ef576000905061150e565b8142116114ff576000905061150e565b814261150b91906122bd565b90505b919050565b6000808284600101546115269190612263565b9050600083856002015461153a9190612263565b9050600082866000015461154e91906121dc565b9050818110156115645760009350505050611576565b818161157091906122bd565b93505050505b92915050565b600080600281111561159157611590612480565b5b8260028111156115a4576115a3612480565b5b14156115b7576459d39e7f0f90506115fd565b600160028111156115cb576115ca612480565b5b8260028111156115de576115dd612480565b5b14156115f25765010d7adb7d2f90506115fc565b6501c122187b4f90505b5b919050565b600061162a836000018373ffffffffffffffffffffffffffffffffffffffff1660001b611786565b905092915050565b600061165a836000018373ffffffffffffffffffffffffffffffffffffffff1660001b6117f6565b905092915050565b606060006116728360000161190a565b905060608190508092505050919050565b60006116e5826040518060400160405280602081526020017f5361666545524332303a206c6f772d6c6576656c2063616c6c206661696c65648152508573ffffffffffffffffffffffffffffffffffffffff166119669092919063ffffffff16565b905060008151111561174557808060200190518101906117059190611c55565b611744576040517f08c379a000000000000000000000000000000000000000000000000000000000815260040161173b9061203a565b60405180910390fd5b5b505050565b600081600001805490509050919050565b6000826000018281548110611773576117726124de565b5b9060005260206000200154905092915050565b6000611792838361197e565b6117eb5782600001829080600181540180825580915050600190039060005260206000200160009091909190915055826000018054905083600101600084815260200190815260200160002081905550600190506117f0565b600090505b92915050565b600080836001016000848152602001908152602001600020549050600081146118fe57600060018261182891906122bd565b905060006001866000018054905061184091906122bd565b90508181146118af576000866000018281548110611861576118606124de565b5b9060005260206000200154905080876000018481548110611885576118846124de565b5b90600052602060002001819055508387600101600083815260200190815260200160002081905550505b856000018054806118c3576118c26124af565b5b600190038181906000526020600020016000905590558560010160008681526020019081526020016000206000905560019350505050611904565b60009150505b92915050565b60608160000180548060200260200160405190810160405280929190818152602001828054801561195a57602002820191906000526020600020905b815481526020019060010190808311611946575b50505050509050919050565b606061197584846000856119a1565b90509392505050565b600080836001016000848152602001908152602001600020541415905092915050565b6060824710156119e6576040517f08c379a00000000000000000000000000000000000000000000000000000000081526004016119dd90611ffa565b60405180910390fd5b6119ef85611ab5565b611a2e576040517f08c379a0000000000000000000000000000000000000000000000000000000008152600401611a259061201a565b60405180910390fd5b6000808673ffffffffffffffffffffffffffffffffffffffff168587604051611a579190611eb1565b60006040518083038185875af1925050503d8060008114611a94576040519150601f19603f3d011682016040523d82523d6000602084013e611a99565b606091505b5091509150611aa9828286611ad8565b92505050949350505050565b6000808273ffffffffffffffffffffffffffffffffffffffff163b119050919050565b60608315611ae857829050611b38565b600083511115611afb5782518084602001fd5b816040517f08c379a0000000000000000000000000000000000000000000000000000000008152600401611b2f9190611fd8565b60405180910390fd5b9392505050565b600081359050611b4e8161264d565b92915050565b600081519050611b6381612664565b92915050565b600081359050611b788161267b565b92915050565b600081359050611b8d8161268b565b92915050565b600081519050611ba28161268b565b92915050565b600060208284031215611bbe57611bbd61250d565b5b6000611bcc84828501611b3f565b91505092915050565b60008060408385031215611bec57611beb61250d565b5b6000611bfa85828601611b3f565b9250506020611c0b85828601611b3f565b9150509250929050565b60008060408385031215611c2c57611c2b61250d565b5b6000611c3a85828601611b3f565b9250506020611c4b85828601611b69565b9150509250929050565b600060208284031215611c6b57611c6a61250d565b5b6000611c7984828501611b54565b91505092915050565b600060208284031215611c9857611c9761250d565b5b6000611ca684828501611b7e565b91505092915050565b600060208284031215611cc557611cc461250d565b5b6000611cd384828501611b93565b91505092915050565b6000611ce88383611cf4565b60208301905092915050565b611cfd816122f1565b82525050565b611d0c816122f1565b82525050565b6000611d1d82612181565b611d2781856121af565b9350611d3283612171565b8060005b83811015611d63578151611d4a8882611cdc565b9750611d55836121a2565b925050600181019050611d36565b5085935050505092915050565b611d7981612303565b82525050565b6000611d8a8261218c565b611d9481856121c0565b9350611da48185602086016123a6565b80840191505092915050565b611db98161234c565b82525050565b611dc88161235e565b82525050565b611dd781612370565b82525050565b6000611de882612197565b611df281856121cb565b9350611e028185602086016123a6565b611e0b81612512565b840191505092915050565b6000611e236026836121cb565b9150611e2e82612523565b604082019050919050565b6000611e46601d836121cb565b9150611e5182612572565b602082019050919050565b6000611e69602a836121cb565b9150611e748261259b565b604082019050919050565b6000611e8c6036836121cb565b9150611e97826125ea565b604082019050919050565b611eab81612342565b82525050565b6000611ebd8284611d7f565b915081905092915050565b6000602082019050611edd6000830184611d03565b92915050565b6000604082019050611ef86000830185611d03565b611f056020830184611d03565b9392505050565b6000606082019050611f216000830186611d03565b611f2e6020830185611d03565b611f3b6040830184611ea2565b949350505050565b6000604082019050611f586000830185611d03565b611f656020830184611ea2565b9392505050565b6000602082019050611f816000830184611d70565b92915050565b6000602082019050611f9c6000830184611db0565b92915050565b6000602082019050611fb76000830184611dbf565b92915050565b6000602082019050611fd26000830184611dce565b92915050565b60006020820190508181036000830152611ff28184611ddd565b905092915050565b6000602082019050818103600083015261201381611e16565b9050919050565b6000602082019050818103600083015261203381611e39565b9050919050565b6000602082019050818103600083015261205381611e5c565b9050919050565b6000602082019050818103600083015261207381611e7f565b9050919050565b600060208201905061208f6000830184611ea2565b92915050565b60006040820190506120aa6000830185611ea2565b6120b76020830184611d03565b9392505050565b60006060820190506120d36000830186611ea2565b6120e06020830185611d03565b6120ed6040830184611ea2565b949350505050565b600060408201905061210a6000830185611ea2565b6121176020830184611ea2565b9392505050565b60006080820190506121336000830187611ea2565b6121406020830186611ea2565b81810360408301526121528185611d12565b905081810360608301526121668184611d12565b905095945050505050565b6000819050602082019050919050565b600081519050919050565b600081519050919050565b600081519050919050565b6000602082019050919050565b600082825260208201905092915050565b600081905092915050565b600082825260208201905092915050565b60006121e782612342565b91506121f283612342565b9250827fffffffffffffffffffffffffffffffffffffffffffffffffffffffffffffffff0382111561222757612226612422565b5b828201905092915050565b600061223d82612342565b915061224883612342565b92508261225857612257612451565b5b828204905092915050565b600061226e82612342565b915061227983612342565b9250817fffffffffffffffffffffffffffffffffffffffffffffffffffffffffffffffff04831182151516156122b2576122b1612422565b5b828202905092915050565b60006122c882612342565b91506122d383612342565b9250828210156122e6576122e5612422565b5b828203905092915050565b60006122fc82612322565b9050919050565b60008115159050919050565b600081905061231d82612639565b919050565b600073ffffffffffffffffffffffffffffffffffffffff82169050919050565b6000819050919050565b600061235782612382565b9050919050565b600061236982612382565b9050919050565b600061237b8261230f565b9050919050565b600061238d82612394565b9050919050565b600061239f82612322565b9050919050565b60005b838110156123c45780820151818401526020810190506123a9565b838111156123d3576000848401525b50505050565b60006123e482612342565b91507fffffffffffffffffffffffffffffffffffffffffffffffffffffffffffffffff82141561241757612416612422565b5b600182019050919050565b7f4e487b7100000000000000000000000000000000000000000000000000000000600052601160045260246000fd5b7f4e487b7100000000000000000000000000000000000000000000000000000000600052601260045260246000fd5b7f4e487b7100000000000000000000000000000000000000000000000000000000600052602160045260246000fd5b7f4e487b7100000000000000000000000000000000000000000000000000000000600052603160045260246000fd5b7f4e487b7100000000000000000000000000000000000000000000000000000000600052603260045260246000fd5b600080fd5b6000601f19601f8301169050919050565b7f416464726573733a20696e73756666696369656e742062616c616e636520666f60008201527f722063616c6c0000000000000000000000000000000000000000000000000000602082015250565b7f416464726573733a2063616c6c20746f206e6f6e2d636f6e7472616374000000600082015250565b7f5361666545524332303a204552433230206f7065726174696f6e20646964206e60008201527f6f74207375636365656400000000000000000000000000000000000000000000602082015250565b7f5361666545524332303a20617070726f76652066726f6d206e6f6e2d7a65726f60008201527f20746f206e6f6e2d7a65726f20616c6c6f77616e636500000000000000000000602082015250565b6003811061264a57612649612480565b5b50565b612656816122f1565b811461266157600080fd5b50565b61266d81612303565b811461267857600080fd5b50565b6003811061268857600080fd5b50565b61269481612342565b811461269f57600080fd5b5056fea2646970667358221220bbdfba215abda4c6d36e9c4ebd62d9baf7aee9bf9d25ad53535c65c24c5ecf7e64736f6c63430008070033",
  "linkReferences": {},
  "deployedLinkReferences": {}
}