{
  "_format": "hh-sol-artifact-1",
  "contractName": "Grateful",
  "sourceName": "contracts/Grateful.sol",
  "abi": [
    {
      "inputs": [
        {
          "internalType": "address",
          "name": "_dai",
          "type": "address"
        },
        {
          "internalType": "address",
          "name": "_vault",
          "type": "address"
        }
      ],
      "stateMutability": "nonpayable",
      "type": "constructor"
    },
    {
      "inputs": [],
      "name": "AlreadySubscribed",
      "type": "error"
    },
    {
      "inputs": [],
      "name": "IllegalState",
      "type": "error"
    },
    {
      "inputs": [],
      "name": "InsolventUser",
      "type": "error"
    },
    {
      "inputs": [],
      "name": "InsufficientAllowance",
      "type": "error"
    },
    {
      "inputs": [],
      "name": "NotSubscribed",
      "type": "error"
    },
    {
      "inputs": [],
      "name": "ZeroAddress",
      "type": "error"
    },
    {
      "inputs": [],
      "name": "ZeroAmount",
      "type": "error"
    },
    {
      "anonymous": false,
      "inputs": [
        {
          "indexed": true,
          "internalType": "address",
          "name": "user",
          "type": "address"
        },
        {
          "indexed": false,
          "internalType": "uint256",
          "name": "amount",
          "type": "uint256"
        },
        {
          "indexed": false,
          "internalType": "uint256",
          "name": "shares",
          "type": "uint256"
        }
      ],
      "name": "FundsDeposited",
      "type": "event"
    },
    {
      "anonymous": false,
      "inputs": [
        {
          "indexed": true,
          "internalType": "address",
          "name": "user",
          "type": "address"
        },
        {
          "indexed": false,
          "internalType": "uint256",
          "name": "amount",
          "type": "uint256"
        },
        {
          "indexed": false,
          "internalType": "uint256",
          "name": "amountWithdrawn",
          "type": "uint256"
        }
      ],
      "name": "FundsWithdrawn",
      "type": "event"
    },
    {
      "anonymous": false,
      "inputs": [
        {
          "indexed": true,
          "internalType": "address",
          "name": "giver",
          "type": "address"
        },
        {
          "indexed": true,
          "internalType": "address",
          "name": "creator",
          "type": "address"
        },
        {
          "indexed": false,
          "internalType": "uint256",
          "name": "amount",
          "type": "uint256"
        }
      ],
      "name": "GratitudeSent",
      "type": "event"
    },
    {
      "anonymous": false,
      "inputs": [
        {
          "indexed": true,
          "internalType": "address",
          "name": "user",
          "type": "address"
        },
        {
          "indexed": true,
          "internalType": "address",
          "name": "creator",
          "type": "address"
        },
        {
          "indexed": false,
          "internalType": "enum IGratefulData.Tier",
          "name": "tier",
          "type": "uint8"
        }
      ],
      "name": "SubscriptionCreated",
      "type": "event"
    },
    {
      "anonymous": false,
      "inputs": [
        {
          "indexed": true,
          "internalType": "address",
          "name": "user",
          "type": "address"
        },
        {
          "indexed": true,
          "internalType": "address",
          "name": "creator",
          "type": "address"
        }
      ],
      "name": "SubscriptionFinished",
      "type": "event"
    },
    {
      "inputs": [],
      "name": "TIER_ONE_RATE",
      "outputs": [
        {
          "internalType": "uint256",
          "name": "",
          "type": "uint256"
        }
      ],
      "stateMutability": "view",
      "type": "function"
    },
    {
      "inputs": [],
      "name": "TIER_THREE_RATE",
      "outputs": [
        {
          "internalType": "uint256",
          "name": "",
          "type": "uint256"
        }
      ],
      "stateMutability": "view",
      "type": "function"
    },
    {
      "inputs": [],
      "name": "TIER_TWO_RATE",
      "outputs": [
        {
          "internalType": "uint256",
          "name": "",
          "type": "uint256"
        }
      ],
      "stateMutability": "view",
      "type": "function"
    },
    {
      "inputs": [
        {
          "internalType": "address",
          "name": "userAddress",
          "type": "address"
        }
      ],
      "name": "balanceOf",
      "outputs": [
        {
          "internalType": "uint256",
          "name": "balance",
          "type": "uint256"
        }
      ],
      "stateMutability": "view",
      "type": "function"
    },
    {
      "inputs": [],
      "name": "dai",
      "outputs": [
        {
          "internalType": "contract IERC20",
          "name": "",
          "type": "address"
        }
      ],
      "stateMutability": "view",
      "type": "function"
    },
    {
      "inputs": [
        {
          "internalType": "uint256",
          "name": "amount",
          "type": "uint256"
        }
      ],
      "name": "depositFunds",
      "outputs": [],
      "stateMutability": "nonpayable",
      "type": "function"
    },
    {
      "inputs": [
        {
          "internalType": "address",
          "name": "giverAddress",
          "type": "address"
        },
        {
          "internalType": "address",
          "name": "creator",
          "type": "address"
        }
      ],
      "name": "getGiverToCreatorFlow",
      "outputs": [
        {
          "internalType": "uint256",
          "name": "",
          "type": "uint256"
        }
      ],
      "stateMutability": "view",
      "type": "function"
    },
    {
      "inputs": [
        {
          "internalType": "address",
          "name": "userAddress",
          "type": "address"
        }
      ],
      "name": "getUserData",
      "outputs": [
        {
          "internalType": "uint256",
          "name": "",
          "type": "uint256"
        },
        {
          "internalType": "uint256",
          "name": "",
          "type": "uint256"
        },
        {
          "internalType": "address[]",
          "name": "",
          "type": "address[]"
        },
        {
          "internalType": "address[]",
          "name": "",
          "type": "address[]"
        }
      ],
      "stateMutability": "view",
      "type": "function"
    },
    {
      "inputs": [
        {
          "internalType": "address",
          "name": "userAddress",
          "type": "address"
        },
        {
          "internalType": "address",
          "name": "creator",
          "type": "address"
        }
      ],
      "name": "isUserSubscribed",
      "outputs": [
        {
          "internalType": "bool",
          "name": "",
          "type": "bool"
        }
      ],
      "stateMutability": "view",
      "type": "function"
    },
    {
      "inputs": [],
      "name": "minimumSolvencyDuration",
      "outputs": [
        {
          "internalType": "uint256",
          "name": "",
          "type": "uint256"
        }
      ],
      "stateMutability": "view",
      "type": "function"
    },
    {
      "inputs": [],
      "name": "pricePerShare",
      "outputs": [
        {
          "internalType": "uint256",
          "name": "",
          "type": "uint256"
        }
      ],
      "stateMutability": "view",
      "type": "function"
    },
    {
      "inputs": [
        {
          "internalType": "address",
          "name": "creator",
          "type": "address"
        },
        {
          "internalType": "uint256",
          "name": "amount",
          "type": "uint256"
        }
      ],
      "name": "sendGratitude",
      "outputs": [],
      "stateMutability": "nonpayable",
      "type": "function"
    },
    {
      "inputs": [
        {
          "internalType": "address",
          "name": "creator",
          "type": "address"
        },
        {
          "internalType": "enum IGratefulData.Tier",
          "name": "tier",
          "type": "uint8"
        }
      ],
      "name": "subscribeToCreator",
      "outputs": [],
      "stateMutability": "nonpayable",
      "type": "function"
    },
    {
      "inputs": [
        {
          "internalType": "address",
          "name": "creator",
          "type": "address"
        }
      ],
      "name": "unsubscribeFromCreator",
      "outputs": [],
      "stateMutability": "nonpayable",
      "type": "function"
    },
    {
      "inputs": [],
      "name": "vault",
      "outputs": [
        {
          "internalType": "contract IYearnVaultV2",
          "name": "",
          "type": "address"
        }
      ],
      "stateMutability": "view",
      "type": "function"
    },
    {
      "inputs": [],
      "name": "withdrawAllFunds",
      "outputs": [],
      "stateMutability": "nonpayable",
      "type": "function"
    },
    {
      "inputs": [
        {
          "internalType": "uint256",
          "name": "amount",
          "type": "uint256"
        }
      ],
      "name": "withdrawFunds",
      "outputs": [],
      "stateMutability": "nonpayable",
      "type": "function"
    }
  ],
  "bytecode": "0x60c060405262093a806001553480156200001857600080fd5b5060405162001a8038038062001a808339810160408190526200003b91620000a4565b81816001600160a01b038216620000655760405163d92e233d60e01b815260040160405180910390fd5b6001600160601b0319606092831b8116608052911b1660a05250620000dc9050565b80516001600160a01b03811681146200009f57600080fd5b919050565b60008060408385031215620000b857600080fd5b620000c38362000087565b9150620000d36020840162000087565b90509250929050565b60805160601c60a05160601c6119326200014e6000396000818161022d015281816107cb0152818161086c0152818161091301528181610b2001528181610b610152610cbc0152600081816101ee015281816109c501528181610a1101528181610ac90152610afe01526119326000f3fe608060405234801561001057600080fd5b506004361061010b5760003560e01c8063893dc14d116100a2578063f0eea0ea11610071578063f0eea0ea146101d6578063f4b9fa75146101e9578063fbfa77cf14610228578063ffb848831461024f578063ffc9896b1461027257600080fd5b8063893dc14d1461019b57806399530b06146101ae578063b0e6ed1d146101b6578063ed663db6146101c957600080fd5b80633b76594d116100de5780633b76594d1461015a57806349649fbf1461016d5780635fa9b2051461017557806370a082311461018857600080fd5b80630644797614610110578063155dd5ee1461012f5780632c174695146101445780632d2fad7314610151575b600080fd5b61011c6459d39e7f0f81565b6040519081526020015b60405180910390f35b61014261013d3660046116cf565b610295565b005b61011c65010d7adb7d2f81565b61011c60015481565b6101426101683660046116cf565b61032f565b6101426103a4565b610142610183366004611648565b61041c565b61011c6101963660046115fa565b610527565b61011c6101a9366004611615565b610545565b61011c610577565b6101426101c43660046115fa565b610586565b61011c6501c122187b4f81565b6101426101e4366004611683565b610637565b6102107f000000000000000000000000000000000000000000000000000000000000000081565b6040516001600160a01b039091168152602001610126565b6102107f000000000000000000000000000000000000000000000000000000000000000081565b61026261025d366004611615565b6106f8565b6040519015158152602001610126565b6102856102803660046115fa565b61072d565b60405161012694939291906117bc565b806102b357604051631f2a200560e01b815260040160405180910390fd5b6102bc8161076c565b6102c4610796565b6102e15760405163803b3f6160e01b815260040160405180910390fd5b60006102ec826107a9565b604080518481526020810183905291925033917ffbc3a599b784fe88772fc5abcc07223f64ca0b13acc341f4fb1e46bef0510eb491015b60405180910390a25050565b8061034d57604051631f2a200560e01b815260040160405180910390fd5b610356816109f3565b600061036182610aba565b905061036c81610be5565b604080518381526020810183905233917fbee4fe3675934fca827426c793623996a3079255089bda3a717019ffc5db27659101610323565b60006103af33610c06565b90506103ba81610c20565b80546103c58161076c565b6103ce82610c37565b60006103d9826107a9565b604080518481526020810183905291925033917ffbc3a599b784fe88772fc5abcc07223f64ca0b13acc341f4fb1e46bef0510eb4910160405180910390a2505050565b6001600160a01b0382166104435760405163d92e233d60e01b815260040160405180910390fd5b600061044e33610c06565b6001600160a01b03841660009081526003820160205260409020549091501561048a57604051632fec509960e11b815260040160405180910390fd5b61049381610c85565b6104b05760405163803b3f6160e01b815260040160405180910390fd5b60006104ba610cb8565b905060006104c88483610d4b565b90506104d5838683610d76565b846001600160a01b0316336001600160a01b03167f869f8638cdd8c0a63d1b761f3fcff4eb5805847654e8081a8ced03f141bc6172866040516105189190611761565b60405180910390a35050505050565b60008061053383610c06565b905061053e81610e1a565b9392505050565b60008061055184610c06565b6001600160a01b0384166000908152600390910160205260409020549150505b92915050565b6000610581610cb8565b905090565b6001600160a01b0381166105ad5760405163d92e233d60e01b815260040160405180910390fd5b60006105b833610c06565b6001600160a01b03831660009081526003820160205260409020549091506105f35760405163046fcd8560e31b815260040160405180910390fd5b6105fd8183610e36565b6040516001600160a01b0383169033907f91002c5224695126545c1aa8bed704a4371b31483853bd98799e3f2cd40f6a1b90600090a35050565b6001600160a01b03821661065e5760405163d92e233d60e01b815260040160405180910390fd5b8061067c57604051631f2a200560e01b815260040160405180910390fd5b6106858161076c565b61068d610796565b6106aa5760405163803b3f6160e01b815260040160405180910390fd5b6106b48282610eee565b6040518181526001600160a01b0383169033907f3bd6474b2cc6284de70d0ebadebb50b788c7786df463b64063267102e81d5d5c9060200160405180910390a35050565b60008061070484610c06565b6001600160a01b038416600090815260038201602052604090205490915015155b949350505050565b600080606080600061073e86610c06565b90508060010154816002015461075383610f19565b61075c84610f27565b9450945094509450509193509193565b600061077733610c06565b90508181600001600082825461078d9190611846565b90915550505050565b60006105816107a433610c06565b610c85565b6040516370a0823160e01b815230600482015260009081906001600160a01b037f000000000000000000000000000000000000000000000000000000000000000016906370a082319060240160206040518083038186803b15801561080d57600080fd5b505afa158015610821573d6000803e3d6000fd5b505050506040513d601f19601f8201168201806040525081019061084591906116e8565b604051631cc6d2f960e31b81526004810185905230602482015261271060448201529091507f00000000000000000000000000000000000000000000000000000000000000006001600160a01b03169063e63697c890606401602060405180830381600087803b1580156108b857600080fd5b505af11580156108cc573d6000803e3d6000fd5b505050506040513d601f19601f820116820180604052508101906108f091906116e8565b6040516370a0823160e01b81523060048201529092506000906001600160a01b037f000000000000000000000000000000000000000000000000000000000000000016906370a082319060240160206040518083038186803b15801561095557600080fd5b505afa158015610969573d6000803e3d6000fd5b505050506040513d601f19601f8201168201806040525081019061098d91906116e8565b90508361099a8284611846565b146109b857604051634a613c4160e01b815260040160405180910390fd5b6109ec6001600160a01b037f0000000000000000000000000000000000000000000000000000000000000000163385610f35565b5050919050565b604051636eb1769f60e11b81523360048201523060248201526000907f00000000000000000000000000000000000000000000000000000000000000006001600160a01b03169063dd62ed3e9060440160206040518083038186803b158015610a5b57600080fd5b505afa158015610a6f573d6000803e3d6000fd5b505050506040513d601f19601f82011682018060405250810190610a9391906116e8565b905081811015610ab6576040516313be252b60e01b815260040160405180910390fd5b5050565b6000610af16001600160a01b037f000000000000000000000000000000000000000000000000000000000000000016333085610f98565b610b456001600160a01b037f0000000000000000000000000000000000000000000000000000000000000000167f000000000000000000000000000000000000000000000000000000000000000084610fd6565b604051636e553f6560e01b8152600481018390523060248201527f00000000000000000000000000000000000000000000000000000000000000006001600160a01b031690636e553f6590604401602060405180830381600087803b158015610bad57600080fd5b505af1158015610bc1573d6000803e3d6000fd5b505050506040513d601f19601f8201168201806040525081019061057191906116e8565b6000610bf033610c06565b90508181600001600082825461078d91906117ed565b6001600160a01b0316600090815260208190526040902090565b6000610c2b82610e1a565b82555042600490910155565b6000610c45826005016110ff565b905060005b81811015610c80576000610c616005850182611109565b9050610c6d8482610e36565b5080610c7881611889565b915050610c4a565b505050565b600080600154610c988460040154611115565b610ca291906117ed565b90506000610cb0848361113d565b119392505050565b60007f00000000000000000000000000000000000000000000000000000000000000006001600160a01b03166399530b066040518163ffffffff1660e01b815260040160206040518083038186803b158015610d1357600080fd5b505afa158015610d27573d6000803e3d6000fd5b505050506040513d601f19601f8201168201806040525081019061058191906116e8565b600080610d57846111a2565b905082610d6c82670de0b6b3a7640000611827565b6107259190611805565b610d7f83610c20565b80836002016000828254610d9391906117ed565b90915550506001600160a01b038216600090815260038401602052604081208054839290610dc29084906117ed565b90915550610dd5905060058401836111fe565b506000610de183610c06565b9050610dec81610c20565b81816001016000828254610e0091906117ed565b90915550610e13905060078201336111fe565b5050505050565b600080610e2a8360040154611115565b905061053e838261113d565b6001600160a01b0381166000908152600383016020526040902054610e5a83610c20565b80836002016000828254610e6e9190611846565b90915550506001600160a01b038216600090815260038401602052604081208054839290610e9d908490611846565b90915550610eb090506005840183611213565b506000610ebc83610c06565b9050610ec781610c20565b81816001016000828254610edb9190611846565b90915550610e1390506007820133611213565b6000610ef983610c06565b905081816000016000828254610f0f91906117ed565b9091555050505050565b606061057182600501611228565b606061057182600701611228565b6040516001600160a01b038316602482015260448101829052610c8090849063a9059cbb60e01b906064015b60408051601f198184030181529190526020810180516001600160e01b03166001600160e01b031990931692909217909152611235565b6040516001600160a01b0380851660248301528316604482015260648101829052610fd09085906323b872dd60e01b90608401610f61565b50505050565b80158061105f5750604051636eb1769f60e11b81523060048201526001600160a01b03838116602483015284169063dd62ed3e9060440160206040518083038186803b15801561102557600080fd5b505afa158015611039573d6000803e3d6000fd5b505050506040513d601f19601f8201168201806040525081019061105d91906116e8565b155b6110cf5760405162461bcd60e51b815260206004820152603660248201527f5361666545524332303a20617070726f76652066726f6d206e6f6e2d7a65726f60448201527520746f206e6f6e2d7a65726f20616c6c6f77616e636560501b60648201526084015b60405180910390fd5b6040516001600160a01b038316602482015260448101829052610c8090849063095ea7b360e01b90606401610f61565b6000610571825490565b600061053e8383611307565b60008161112457506000919050565b81421161113357506000919050565b6105718242611846565b6000808284600101546111509190611827565b905060008385600201546111649190611827565b9050600082866000015461117891906117ed565b90508181101561118e5760009350505050610571565b6111988282611846565b9350505050610571565b6000808260028111156111b7576111b76118ba565b14156111c957506459d39e7f0f919050565b60018260028111156111dd576111dd6118ba565b14156111f0575065010d7adb7d2f919050565b506501c122187b4f5b919050565b600061053e836001600160a01b038416611331565b600061053e836001600160a01b038416611380565b6060600061053e83611473565b600061128a826040518060400160405280602081526020017f5361666545524332303a206c6f772d6c6576656c2063616c6c206661696c6564815250856001600160a01b03166114cf9092919063ffffffff16565b805190915015610c8057808060200190518101906112a891906116ad565b610c805760405162461bcd60e51b815260206004820152602a60248201527f5361666545524332303a204552433230206f7065726174696f6e20646964206e6044820152691bdd081cdd58d8d9595960b21b60648201526084016110c6565b600082600001828154811061131e5761131e6118e6565b9060005260206000200154905092915050565b600081815260018301602052604081205461137857508154600181810184556000848152602080822090930184905584548482528286019093526040902091909155610571565b506000610571565b600081815260018301602052604081205480156114695760006113a4600183611846565b85549091506000906113b890600190611846565b905081811461141d5760008660000182815481106113d8576113d86118e6565b90600052602060002001549050808760000184815481106113fb576113fb6118e6565b6000918252602080832090910192909255918252600188019052604090208390555b855486908061142e5761142e6118d0565b600190038181906000526020600020016000905590558560010160008681526020019081526020016000206000905560019350505050610571565b6000915050610571565b6060816000018054806020026020016040519081016040528092919081815260200182805480156114c357602002820191906000526020600020905b8154815260200190600101908083116114af575b50505050509050919050565b60606107258484600085856001600160a01b0385163b6115315760405162461bcd60e51b815260206004820152601d60248201527f416464726573733a2063616c6c20746f206e6f6e2d636f6e747261637400000060448201526064016110c6565b600080866001600160a01b0316858760405161154d9190611745565b60006040518083038185875af1925050503d806000811461158a576040519150601f19603f3d011682016040523d82523d6000602084013e61158f565b606091505b509150915061159f8282866115aa565b979650505050505050565b606083156115b957508161053e565b8251156115c95782518084602001fd5b8160405162461bcd60e51b81526004016110c69190611789565b80356001600160a01b03811681146111f957600080fd5b60006020828403121561160c57600080fd5b61053e826115e3565b6000806040838503121561162857600080fd5b611631836115e3565b915061163f602084016115e3565b90509250929050565b6000806040838503121561165b57600080fd5b611664836115e3565b915060208301356003811061167857600080fd5b809150509250929050565b6000806040838503121561169657600080fd5b61169f836115e3565b946020939093013593505050565b6000602082840312156116bf57600080fd5b8151801515811461053e57600080fd5b6000602082840312156116e157600080fd5b5035919050565b6000602082840312156116fa57600080fd5b5051919050565b600081518084526020808501945080840160005b8381101561173a5781516001600160a01b031687529582019590820190600101611715565b509495945050505050565b6000825161175781846020870161185d565b9190910192915050565b602081016003831061178357634e487b7160e01b600052602160045260246000fd5b91905290565b60208152600082518060208401526117a881604085016020870161185d565b601f01601f19169190910160400192915050565b8481528360208201526080604082015260006117db6080830185611701565b828103606084015261159f8185611701565b60008219821115611800576118006118a4565b500190565b60008261182257634e487b7160e01b600052601260045260246000fd5b500490565b6000816000190483118215151615611841576118416118a4565b500290565b600082821015611858576118586118a4565b500390565b60005b83811015611878578181015183820152602001611860565b83811115610fd05750506000910152565b600060001982141561189d5761189d6118a4565b5060010190565b634e487b7160e01b600052601160045260246000fd5b634e487b7160e01b600052602160045260246000fd5b634e487b7160e01b600052603160045260246000fd5b634e487b7160e01b600052603260045260246000fdfea264697066735822122094936c61767bc6e285032967761a4a52cd101679e6b54d70cced218f42fedc9d64736f6c63430008070033",
  "linkReferences": {},
  "deployedLinkReferences": {}
}