{
  "_format": "hh-sol-artifact-1",
  "contractName": "Grateful",
  "sourceName": "contracts/Grateful.sol",
  "abi": [
    {
      "inputs": [
        {
          "internalType": "address",
          "name": "_dai",
          "type": "address"
        },
        {
          "internalType": "address",
          "name": "_vault",
          "type": "address"
        }
      ],
      "stateMutability": "nonpayable",
      "type": "constructor"
    },
    {
      "inputs": [],
      "name": "AlreadySubscribed",
      "type": "error"
    },
    {
      "inputs": [],
      "name": "IllegalState",
      "type": "error"
    },
    {
      "inputs": [],
      "name": "InsolventUser",
      "type": "error"
    },
    {
      "inputs": [],
      "name": "InsufficientAllowance",
      "type": "error"
    },
    {
      "inputs": [],
      "name": "NotSubscribed",
      "type": "error"
    },
    {
      "inputs": [],
      "name": "ZeroAddress",
      "type": "error"
    },
    {
      "inputs": [],
      "name": "ZeroAmount",
      "type": "error"
    },
    {
      "anonymous": false,
      "inputs": [
        {
          "indexed": true,
          "internalType": "address",
          "name": "user",
          "type": "address"
        },
        {
          "indexed": false,
          "internalType": "uint256",
          "name": "amount",
          "type": "uint256"
        },
        {
          "indexed": false,
          "internalType": "uint256",
          "name": "shares",
          "type": "uint256"
        }
      ],
      "name": "FundsDeposited",
      "type": "event"
    },
    {
      "anonymous": false,
      "inputs": [
        {
          "indexed": true,
          "internalType": "address",
          "name": "user",
          "type": "address"
        },
        {
          "indexed": false,
          "internalType": "uint256",
          "name": "amount",
          "type": "uint256"
        },
        {
          "indexed": false,
          "internalType": "uint256",
          "name": "amountWithdrawn",
          "type": "uint256"
        }
      ],
      "name": "FundsWithdrawn",
      "type": "event"
    },
    {
      "anonymous": false,
      "inputs": [
        {
          "indexed": true,
          "internalType": "address",
          "name": "giver",
          "type": "address"
        },
        {
          "indexed": true,
          "internalType": "address",
          "name": "creator",
          "type": "address"
        },
        {
          "indexed": false,
          "internalType": "uint256",
          "name": "amount",
          "type": "uint256"
        }
      ],
      "name": "GratitudeSent",
      "type": "event"
    },
    {
      "anonymous": false,
      "inputs": [
        {
          "indexed": true,
          "internalType": "address",
          "name": "user",
          "type": "address"
        },
        {
          "indexed": true,
          "internalType": "address",
          "name": "creator",
          "type": "address"
        },
        {
          "indexed": false,
          "internalType": "enum IGratefulData.Tier",
          "name": "tier",
          "type": "uint8"
        }
      ],
      "name": "SubscriptionCreated",
      "type": "event"
    },
    {
      "anonymous": false,
      "inputs": [
        {
          "indexed": true,
          "internalType": "address",
          "name": "user",
          "type": "address"
        },
        {
          "indexed": true,
          "internalType": "address",
          "name": "creator",
          "type": "address"
        }
      ],
      "name": "SubscriptionFinished",
      "type": "event"
    },
    {
      "inputs": [],
      "name": "TIER_ONE_RATE",
      "outputs": [
        {
          "internalType": "uint256",
          "name": "",
          "type": "uint256"
        }
      ],
      "stateMutability": "view",
      "type": "function"
    },
    {
      "inputs": [],
      "name": "TIER_THREE_RATE",
      "outputs": [
        {
          "internalType": "uint256",
          "name": "",
          "type": "uint256"
        }
      ],
      "stateMutability": "view",
      "type": "function"
    },
    {
      "inputs": [],
      "name": "TIER_TWO_RATE",
      "outputs": [
        {
          "internalType": "uint256",
          "name": "",
          "type": "uint256"
        }
      ],
      "stateMutability": "view",
      "type": "function"
    },
    {
      "inputs": [
        {
          "internalType": "address",
          "name": "userAddress",
          "type": "address"
        }
      ],
      "name": "balanceOf",
      "outputs": [
        {
          "internalType": "uint256",
          "name": "balance",
          "type": "uint256"
        }
      ],
      "stateMutability": "view",
      "type": "function"
    },
    {
      "inputs": [],
      "name": "dai",
      "outputs": [
        {
          "internalType": "contract IERC20",
          "name": "",
          "type": "address"
        }
      ],
      "stateMutability": "view",
      "type": "function"
    },
    {
      "inputs": [
        {
          "internalType": "uint256",
          "name": "amount",
          "type": "uint256"
        },
        {
          "internalType": "address",
          "name": "creator",
          "type": "address"
        },
        {
          "internalType": "enum IGratefulData.Tier",
          "name": "tier",
          "type": "uint8"
        }
      ],
      "name": "depositAndSubscribe",
      "outputs": [],
      "stateMutability": "nonpayable",
      "type": "function"
    },
    {
      "inputs": [
        {
          "internalType": "uint256",
          "name": "amount",
          "type": "uint256"
        }
      ],
      "name": "depositFunds",
      "outputs": [],
      "stateMutability": "nonpayable",
      "type": "function"
    },
    {
      "inputs": [
        {
          "internalType": "address",
          "name": "giverAddress",
          "type": "address"
        },
        {
          "internalType": "address",
          "name": "creator",
          "type": "address"
        }
      ],
      "name": "getGiverToCreatorFlow",
      "outputs": [
        {
          "internalType": "uint256",
          "name": "",
          "type": "uint256"
        }
      ],
      "stateMutability": "view",
      "type": "function"
    },
    {
      "inputs": [
        {
          "internalType": "address",
          "name": "userAddress",
          "type": "address"
        }
      ],
      "name": "getUserData",
      "outputs": [
        {
          "internalType": "uint256",
          "name": "",
          "type": "uint256"
        },
        {
          "internalType": "uint256",
          "name": "",
          "type": "uint256"
        },
        {
          "internalType": "address[]",
          "name": "",
          "type": "address[]"
        },
        {
          "internalType": "address[]",
          "name": "",
          "type": "address[]"
        }
      ],
      "stateMutability": "view",
      "type": "function"
    },
    {
      "inputs": [
        {
          "internalType": "address",
          "name": "userAddress",
          "type": "address"
        },
        {
          "internalType": "address",
          "name": "creator",
          "type": "address"
        }
      ],
      "name": "isUserSubscribed",
      "outputs": [
        {
          "internalType": "bool",
          "name": "",
          "type": "bool"
        }
      ],
      "stateMutability": "view",
      "type": "function"
    },
    {
      "inputs": [],
      "name": "minimumSolvencyDuration",
      "outputs": [
        {
          "internalType": "uint256",
          "name": "",
          "type": "uint256"
        }
      ],
      "stateMutability": "view",
      "type": "function"
    },
    {
      "inputs": [],
      "name": "pricePerShare",
      "outputs": [
        {
          "internalType": "uint256",
          "name": "",
          "type": "uint256"
        }
      ],
      "stateMutability": "view",
      "type": "function"
    },
    {
      "inputs": [
        {
          "internalType": "address",
          "name": "creator",
          "type": "address"
        },
        {
          "internalType": "uint256",
          "name": "amount",
          "type": "uint256"
        }
      ],
      "name": "sendGratitude",
      "outputs": [],
      "stateMutability": "nonpayable",
      "type": "function"
    },
    {
      "inputs": [
        {
          "internalType": "address",
          "name": "creator",
          "type": "address"
        },
        {
          "internalType": "enum IGratefulData.Tier",
          "name": "tier",
          "type": "uint8"
        }
      ],
      "name": "subscribeToCreator",
      "outputs": [],
      "stateMutability": "nonpayable",
      "type": "function"
    },
    {
      "inputs": [
        {
          "internalType": "address",
          "name": "creator",
          "type": "address"
        }
      ],
      "name": "unsubscribeFromCreator",
      "outputs": [],
      "stateMutability": "nonpayable",
      "type": "function"
    },
    {
      "inputs": [],
      "name": "vault",
      "outputs": [
        {
          "internalType": "contract IYearnVaultV2",
          "name": "",
          "type": "address"
        }
      ],
      "stateMutability": "view",
      "type": "function"
    },
    {
      "inputs": [],
      "name": "withdrawAllFunds",
      "outputs": [],
      "stateMutability": "nonpayable",
      "type": "function"
    },
    {
      "inputs": [
        {
          "internalType": "uint256",
          "name": "amount",
          "type": "uint256"
        }
      ],
      "name": "withdrawFunds",
      "outputs": [],
      "stateMutability": "nonpayable",
      "type": "function"
    }
  ],
  "bytecode": "0x60c060405262093a806001553480156200001857600080fd5b5060405162001aeb38038062001aeb8339810160408190526200003b91620000a4565b81816001600160a01b038216620000655760405163d92e233d60e01b815260040160405180910390fd5b6001600160601b0319606092831b8116608052911b1660a05250620000dc9050565b80516001600160a01b03811681146200009f57600080fd5b919050565b60008060408385031215620000b857600080fd5b620000c38362000087565b9150620000d36020840162000087565b90509250929050565b60805160601c60a05160601c61199d6200014e6000396000818161024b01528181610801015281816108a20152818161094901528181610b5601528181610b970152610ced01526000818161020c015281816109fb01528181610a4701528181610aff0152610b34015261199d6000f3fe608060405234801561001057600080fd5b50600436106101165760003560e01c806399530b06116100a2578063f0eea0ea11610071578063f0eea0ea146101f4578063f4b9fa7514610207578063fbfa77cf14610246578063ffb848831461026d578063ffc9896b1461029057600080fd5b806399530b06146101b9578063ab93460c146101c1578063b0e6ed1d146101d4578063ed663db6146101e757600080fd5b80633b76594d116100e95780633b76594d1461016557806349649fbf146101785780635fa9b2051461018057806370a0823114610193578063893dc14d146101a657600080fd5b8063064479761461011b578063155dd5ee1461013a5780632c1746951461014f5780632d2fad731461015c575b600080fd5b6101276459d39e7f0f81565b6040519081526020015b60405180910390f35b61014d6101483660046116fe565b6102b3565b005b61012765010d7adb7d2f81565b61012760015481565b61014d6101733660046116fe565b61034d565b61014d6103c2565b61014d61018e366004611688565b61043a565b6101276101a136600461163a565b610545565b6101276101b4366004611655565b610563565b610127610595565b61014d6101cf366004611730565b6105a4565b61014d6101e236600461163a565b6105bc565b6101276501c122187b4f81565b61014d6102023660046116b2565b61066d565b61022e7f000000000000000000000000000000000000000000000000000000000000000081565b6040516001600160a01b039091168152602001610131565b61022e7f000000000000000000000000000000000000000000000000000000000000000081565b61028061027b366004611655565b61072e565b6040519015158152602001610131565b6102a361029e36600461163a565b610763565b6040516101319493929190611827565b806102d157604051631f2a200560e01b815260040160405180910390fd5b6102da816107a2565b6102e26107cc565b6102ff5760405163803b3f6160e01b815260040160405180910390fd5b600061030a826107df565b604080518481526020810183905291925033917ffbc3a599b784fe88772fc5abcc07223f64ca0b13acc341f4fb1e46bef0510eb491015b60405180910390a25050565b8061036b57604051631f2a200560e01b815260040160405180910390fd5b61037481610a29565b600061037f82610af0565b905061038a81610c1b565b604080518381526020810183905233917fbee4fe3675934fca827426c793623996a3079255089bda3a717019ffc5db27659101610341565b60006103cd33610c3c565b90506103d881610c56565b80546103e3816107a2565b6103ec82610c6d565b60006103f7826107df565b604080518481526020810183905291925033917ffbc3a599b784fe88772fc5abcc07223f64ca0b13acc341f4fb1e46bef0510eb4910160405180910390a2505050565b6001600160a01b0382166104615760405163d92e233d60e01b815260040160405180910390fd5b600061046c33610c3c565b6001600160a01b0384166000908152600382016020526040902054909150156104a857604051632fec509960e11b815260040160405180910390fd5b6104b181610cb6565b6104ce5760405163803b3f6160e01b815260040160405180910390fd5b60006104d8610ce9565b905060006104e68483610d7c565b90506104f3838683610da7565b846001600160a01b0316336001600160a01b03167f869f8638cdd8c0a63d1b761f3fcff4eb5805847654e8081a8ced03f141bc61728660405161053691906117cc565b60405180910390a35050505050565b60008061055183610c3c565b905061055c81610e4b565b9392505050565b60008061056f84610c3c565b6001600160a01b0384166000908152600390910160205260409020549150505b92915050565b600061059f610ce9565b905090565b6105ad8361034d565b6105b7828261043a565b505050565b6001600160a01b0381166105e35760405163d92e233d60e01b815260040160405180910390fd5b60006105ee33610c3c565b6001600160a01b03831660009081526003820160205260409020549091506106295760405163046fcd8560e31b815260040160405180910390fd5b6106338183610e67565b6040516001600160a01b0383169033907f91002c5224695126545c1aa8bed704a4371b31483853bd98799e3f2cd40f6a1b90600090a35050565b6001600160a01b0382166106945760405163d92e233d60e01b815260040160405180910390fd5b806106b257604051631f2a200560e01b815260040160405180910390fd5b6106bb816107a2565b6106c36107cc565b6106e05760405163803b3f6160e01b815260040160405180910390fd5b6106ea8282610f1f565b6040518181526001600160a01b0383169033907f3bd6474b2cc6284de70d0ebadebb50b788c7786df463b64063267102e81d5d5c9060200160405180910390a35050565b60008061073a84610c3c565b6001600160a01b038416600090815260038201602052604090205490915015155b949350505050565b600080606080600061077486610c3c565b90508060010154816002015461078983610f4a565b61079284610f58565b9450945094509450509193509193565b60006107ad33610c3c565b9050818160000160008282546107c391906118b1565b90915550505050565b600061059f6107da33610c3c565b610cb6565b6040516370a0823160e01b815230600482015260009081906001600160a01b037f000000000000000000000000000000000000000000000000000000000000000016906370a082319060240160206040518083038186803b15801561084357600080fd5b505afa158015610857573d6000803e3d6000fd5b505050506040513d601f19601f8201168201806040525081019061087b9190611717565b604051631cc6d2f960e31b81526004810185905230602482015261271060448201529091507f00000000000000000000000000000000000000000000000000000000000000006001600160a01b03169063e63697c890606401602060405180830381600087803b1580156108ee57600080fd5b505af1158015610902573d6000803e3d6000fd5b505050506040513d601f19601f820116820180604052508101906109269190611717565b6040516370a0823160e01b81523060048201529092506000906001600160a01b037f000000000000000000000000000000000000000000000000000000000000000016906370a082319060240160206040518083038186803b15801561098b57600080fd5b505afa15801561099f573d6000803e3d6000fd5b505050506040513d601f19601f820116820180604052508101906109c39190611717565b9050836109d082846118b1565b146109ee57604051634a613c4160e01b815260040160405180910390fd5b610a226001600160a01b037f0000000000000000000000000000000000000000000000000000000000000000163385610f66565b5050919050565b604051636eb1769f60e11b81523360048201523060248201526000907f00000000000000000000000000000000000000000000000000000000000000006001600160a01b03169063dd62ed3e9060440160206040518083038186803b158015610a9157600080fd5b505afa158015610aa5573d6000803e3d6000fd5b505050506040513d601f19601f82011682018060405250810190610ac99190611717565b905081811015610aec576040516313be252b60e01b815260040160405180910390fd5b5050565b6000610b276001600160a01b037f000000000000000000000000000000000000000000000000000000000000000016333085610fc9565b610b7b6001600160a01b037f0000000000000000000000000000000000000000000000000000000000000000167f000000000000000000000000000000000000000000000000000000000000000084611007565b604051636e553f6560e01b8152600481018390523060248201527f00000000000000000000000000000000000000000000000000000000000000006001600160a01b031690636e553f6590604401602060405180830381600087803b158015610be357600080fd5b505af1158015610bf7573d6000803e3d6000fd5b505050506040513d601f19601f8201168201806040525081019061058f9190611717565b6000610c2633610c3c565b9050818160000160008282546107c39190611858565b6001600160a01b0316600090815260208190526040902090565b6000610c6182610e4b565b82555042600490910155565b6000610c7b82600501611130565b905060005b818110156105b7576000610c97600585018261113a565b9050610ca38482610e67565b5080610cae816118f4565b915050610c80565b600080600154610cc98460040154611146565b610cd39190611858565b90506000610ce1848361116e565b119392505050565b60007f00000000000000000000000000000000000000000000000000000000000000006001600160a01b03166399530b066040518163ffffffff1660e01b815260040160206040518083038186803b158015610d4457600080fd5b505afa158015610d58573d6000803e3d6000fd5b505050506040513d601f19601f8201168201806040525081019061059f9190611717565b600080610d88846111d3565b905082610d9d82670de0b6b3a7640000611892565b61075b9190611870565b610db083610c56565b80836002016000828254610dc49190611858565b90915550506001600160a01b038216600090815260038401602052604081208054839290610df3908490611858565b90915550610e069050600584018361122f565b506000610e1283610c3c565b9050610e1d81610c56565b81816001016000828254610e319190611858565b90915550610e449050600782013361122f565b5050505050565b600080610e5b8360040154611146565b905061055c838261116e565b6001600160a01b0381166000908152600383016020526040902054610e8b83610c56565b80836002016000828254610e9f91906118b1565b90915550506001600160a01b038216600090815260038401602052604081208054839290610ece9084906118b1565b90915550610ee190506005840183611244565b506000610eed83610c3c565b9050610ef881610c56565b81816001016000828254610f0c91906118b1565b90915550610e4490506007820133611244565b6000610f2a83610c3c565b905081816000016000828254610f409190611858565b9091555050505050565b606061058f82600501611259565b606061058f82600701611259565b6040516001600160a01b0383166024820152604481018290526105b790849063a9059cbb60e01b906064015b60408051601f198184030181529190526020810180516001600160e01b03166001600160e01b031990931692909217909152611266565b6040516001600160a01b03808516602483015283166044820152606481018290526110019085906323b872dd60e01b90608401610f92565b50505050565b8015806110905750604051636eb1769f60e11b81523060048201526001600160a01b03838116602483015284169063dd62ed3e9060440160206040518083038186803b15801561105657600080fd5b505afa15801561106a573d6000803e3d6000fd5b505050506040513d601f19601f8201168201806040525081019061108e9190611717565b155b6111005760405162461bcd60e51b815260206004820152603660248201527f5361666545524332303a20617070726f76652066726f6d206e6f6e2d7a65726f60448201527520746f206e6f6e2d7a65726f20616c6c6f77616e636560501b60648201526084015b60405180910390fd5b6040516001600160a01b0383166024820152604481018290526105b790849063095ea7b360e01b90606401610f92565b600061058f825490565b600061055c8383611338565b60008161115557506000919050565b81421161116457506000919050565b61058f82426118b1565b6000808284600101546111819190611892565b905060008385600201546111959190611892565b905060008286600001546111a99190611858565b9050818110156111bf576000935050505061058f565b6111c982826118b1565b935050505061058f565b6000808260028111156111e8576111e8611925565b14156111fa57506459d39e7f0f919050565b600182600281111561120e5761120e611925565b1415611221575065010d7adb7d2f919050565b506501c122187b4f5b919050565b600061055c836001600160a01b038416611362565b600061055c836001600160a01b0384166113b1565b6060600061055c836114a4565b60006112bb826040518060400160405280602081526020017f5361666545524332303a206c6f772d6c6576656c2063616c6c206661696c6564815250856001600160a01b03166115009092919063ffffffff16565b8051909150156105b757808060200190518101906112d991906116dc565b6105b75760405162461bcd60e51b815260206004820152602a60248201527f5361666545524332303a204552433230206f7065726174696f6e20646964206e6044820152691bdd081cdd58d8d9595960b21b60648201526084016110f7565b600082600001828154811061134f5761134f611951565b9060005260206000200154905092915050565b60008181526001830160205260408120546113a95750815460018181018455600084815260208082209093018490558454848252828601909352604090209190915561058f565b50600061058f565b6000818152600183016020526040812054801561149a5760006113d56001836118b1565b85549091506000906113e9906001906118b1565b905081811461144e57600086600001828154811061140957611409611951565b906000526020600020015490508087600001848154811061142c5761142c611951565b6000918252602080832090910192909255918252600188019052604090208390555b855486908061145f5761145f61193b565b60019003818190600052602060002001600090559055856001016000868152602001908152602001600020600090556001935050505061058f565b600091505061058f565b6060816000018054806020026020016040519081016040528092919081815260200182805480156114f457602002820191906000526020600020905b8154815260200190600101908083116114e0575b50505050509050919050565b606061075b8484600085856001600160a01b0385163b6115625760405162461bcd60e51b815260206004820152601d60248201527f416464726573733a2063616c6c20746f206e6f6e2d636f6e747261637400000060448201526064016110f7565b600080866001600160a01b0316858760405161157e91906117b0565b60006040518083038185875af1925050503d80600081146115bb576040519150601f19603f3d011682016040523d82523d6000602084013e6115c0565b606091505b50915091506115d08282866115db565b979650505050505050565b606083156115ea57508161055c565b8251156115fa5782518084602001fd5b8160405162461bcd60e51b81526004016110f791906117f4565b80356001600160a01b038116811461122a57600080fd5b80356003811061122a57600080fd5b60006020828403121561164c57600080fd5b61055c82611614565b6000806040838503121561166857600080fd5b61167183611614565b915061167f60208401611614565b90509250929050565b6000806040838503121561169b57600080fd5b6116a483611614565b915061167f6020840161162b565b600080604083850312156116c557600080fd5b6116ce83611614565b946020939093013593505050565b6000602082840312156116ee57600080fd5b8151801515811461055c57600080fd5b60006020828403121561171057600080fd5b5035919050565b60006020828403121561172957600080fd5b5051919050565b60008060006060848603121561174557600080fd5b8335925061175560208501611614565b91506117636040850161162b565b90509250925092565b600081518084526020808501945080840160005b838110156117a55781516001600160a01b031687529582019590820190600101611780565b509495945050505050565b600082516117c28184602087016118c8565b9190910192915050565b60208101600383106117ee57634e487b7160e01b600052602160045260246000fd5b91905290565b60208152600082518060208401526118138160408501602087016118c8565b601f01601f19169190910160400192915050565b848152836020820152608060408201526000611846608083018561176c565b82810360608401526115d0818561176c565b6000821982111561186b5761186b61190f565b500190565b60008261188d57634e487b7160e01b600052601260045260246000fd5b500490565b60008160001904831182151516156118ac576118ac61190f565b500290565b6000828210156118c3576118c361190f565b500390565b60005b838110156118e35781810151838201526020016118cb565b838111156110015750506000910152565b60006000198214156119085761190861190f565b5060010190565b634e487b7160e01b600052601160045260246000fd5b634e487b7160e01b600052602160045260246000fd5b634e487b7160e01b600052603160045260246000fd5b634e487b7160e01b600052603260045260246000fdfea26469706673582212205d9938eee53788921b73aa1a6dad58e3174dee6b8bd2cf827665dc871126535f64736f6c63430008070033",
  "linkReferences": {},
  "deployedLinkReferences": {}
}